:020000040800F2
:10000000981F002005010008E5130008E713000809
:10001000EB130008EF130008F313000800000000C2
:10002000000000000000000000000000F7130008BE
:10003000F913000800000000FB130008FD1300087E
:100040001F0100081F0100081F0100081F01000810
:100050001F0100081F0100081F0100081F01000800
:100060001F0100081F0100081F0100081F010008F0
:100070001F010008F71400081F0100081F010008F5
:100080001F0100081F0100081F0100081F010008D0
:100090001F0100081F0100081F0100081F010008C0
:1000A0001F0100081F0100081F0100081F010008B0
:1000B0001F0100081F0100081F0100081F010008A0
:1000C0001F0100081F0100081F0100081F01000890
:1000D0001F010008FF130008711400081F01000829
:1000E0001F0100081F0100081F010008DFF810D0E1
:1000F00006F01AF9004800475D120008AFF30080CF
:10010000981F00200648804706480047FEE7FEE7A4
:10011000FEE7FEE7FEE7FEE7FEE7FEE7FEE7FEE7B7
:1001200007020008ED0000080CB5002001900090C7
:100130006C48006840F480306A49086000BF694834
:10014000006800F4003000900198401C0190009875
:1001500018B90198B0F5A06FF1D16248006800F4B9
:10016000003010B10120009001E0002000900098C4
:10017000012843D15C48006840F010005A490860EB
:100180000846006820F0030008600846006840F058
:100190000200086053484068524948600846406879
:1001A00048600846406840F48060486008464068FF
:1001B00020F47C1048600846406840F4E81048602D
:1001C0000846006840F08070086000BF454800683D
:1001D00000F000700028F9D04248406820F0030089
:1001E000404948600846406840F00200486000BF4F
:1001F0003C48406800F00C000828F9D10CBD10B54F
:10020000FFF792FF10BD10B53648006840F00100BE
:10021000344908600846406834490840314948601C
:1002200008460068324908402E49086008460068C0
:1002300020F4802008600846406820F4FE004860F2
:100240004FF41F008860FFF7DAFF4FF00060294984
:10025000086010BD10B5002100200022214B5B6812
:1002600003F00C0121B1042906D0082928D107E0A8
:10027000214B224C236027E01F4B204C236023E0BE
:10028000184B5B6803F47010164B5B6803F4803204
:10029000022303EB904022B9194B4343174C2360D0
:1002A0000DE0104B5B6803F4003323B1144B434360
:1002B000124C236003E0104B4343104C236003E0D7
:1002C0000D4B0E4C236000BF00BF064B5B68C3F3B1
:1002D00003130C4CE15C094B1B68CB40074C2360BB
:1002E00010BD000000100240002002400000FFF896
:1002F000FFFFF6FE08ED00E000127A00000000208B
:1003000000093D000400002031490143314A1160D9
:10031000704770B5002100230F22C47804B32D4C20
:10032000246804F4E064C4F5E064210AC1F1040324
:10033000CA40447804FA03F1847814402143090147
:10034000254C0678A155047804F01F050124AC4023
:1003500005786D11AD0005F1E025C5F8004109E013
:10036000047804F01F050124AC401C4D067876117A
:1003700045F8264070BD1A4A0A400243154B1B1F20
:100380001A60704739B1134A121D12680243114BAB
:100390001B1D1A6006E00F4A121D126882430D4BA6
:1003A0001B1D1A607047042808D14FF0E02109692D
:1003B00041F004014FF0E022116107E04FF0E0212D
:1003C000096921F004014FF0E0221161704700003B
:1003D0000000FA050CED00E000E400E080E100E040
:1003E00080FFFF1F01684FF6FE721140016000217F
:1003F000016041608160C1608D49884208D18C49AB
:100400000839496841F00F01894A083A51608AE089
:1004100087491431884208D185490839496841F033
:10042000F001834A083A51607DE0814928318842D1
:1004300008D17F490839496841F470617C4A083A1B
:10044000516070E07A493C31884208D178490839D6
:10045000496841F47041764A083A516063E0744952
:100460005031884208D172490839496841F47021F5
:100470006F4A083A516056E06D496431884208D1AC
:100480006B490839496841F47001694A083A51607A
:1004900049E067497831884208D165490839496897
:1004A00041F07061624A083A51603CE0614988421B
:1004B00006D1011F096841F00F01021F116032E0EF
:1004C0005C491431884208D15A49091F096841F032
:1004D000F001584A121F116025E056492831884220
:1004E00008D15449091F096841F47061514A121F2B
:1004F000116018E04F493C31884208D14D49091F2D
:10050000096841F470414B4A121F11600BE04949E0
:100510005031884207D14749091F096841F47021C9
:10052000444A121F1160704710B50022026847F656
:10053000F0739A430C6A8B6823430C6923434C691C
:1005400023438C692343CC6923434C6A23438C6A3D
:1005500023431A430260CB6843600B6883604B6897
:10056000C36010BD0021016041608160C160016114
:1005700041618161C161016241628162704721B163
:10058000026842F00102026004E002684FF6FE7366
:100590001A40026070471AB103680B43036002E01F
:1005A00003688B43036070474160704701464868A9
:1005B00080B2704701460020002201F080531BB139
:1005C0001C4B083B1A6802E0194B083B1A6802EA08
:1005D00001030BB1012000E00020704700F08051C2
:1005E00019B11449091F086002E01149083948602F
:1005F000704701460020002201F080531BB10D4BD3
:10060000083B1A6802E00A4B083B1A6802EA010339
:100610000BB1012000E00020704700F0805119B1BB
:100620000449091F086002E0014908394860704721
:10063000080002400804024010B50446CC48844239
:1006400008D10121042000F02DFB0021042000F03E
:1006500029FB46E0C748844208D10121082000F068
:1006600021FB0021082000F01DFB3AE0C248844233
:1006700008D10121102000F015FB0021102000F00E
:1006800011FB2EE0BD48844208D10121202000F05A
:1006900009FB0021202000F005FB22E0B84884423D
:1006A00008D10121402000F0FDFA0021402000F097
:1006B000F9FA16E0B348844208D10121802000F005
:1006C000F1FA0021802000F0EDFA0AE0AE48844201
:1006D00007D10121801500F0E5FA0021A01500F0F6
:1006E000E1FA10BD10B50121084600F0DBFA002147
:1006F000012000F0D7FA10BD2DE9F0410246002597
:100700000026002000230024002791F803C00CF0ED
:100710000F0591F803C00CF0100CBCF1000F03D0D2
:1007200091F802C04CEA050591F800C0BCF1000F39
:1007300031D0146800202BE04FF0010C0CFA00F3CC
:10074000B1F800C00CEA03069E4220D183004FF0AE
:100750000F0C0CFA03F7BC4305FA03FC4CEA040443
:1007600091F803C0BCF1280F06D14FF0010C0CFA30
:1007700000FCC2F814C00AE091F803C0BCF1480FB5
:1007800005D14FF0010C0CFA00FCC2F810C0401C5F
:100790000828D1D31460B1F800C0BCF1FF0F34DDDC
:1007A000546800202EE000F1080C4FF0010808FA10
:1007B0000CF3B1F800C00CEA03069E4221D183007D
:1007C0004FF00F0C0CFA03F7BC4305FA03FC4CEA9C
:1007D000040491F803C0BCF1280F05D100F1080C06
:1007E00008FA0CF8C2F8148091F803C0BCF1480F65
:1007F00007D100F1080C4FF0010808FA0CF8C2F814
:100800001080401C0828CED35460BDE8F0814FF61C
:10081000FF710180022181700421C170704702467E
:10082000002093680B400BB1012000E000207047CE
:100830000146886880B2704702460020D3680B40AA
:100840000BB1012000E0002070470146C86880B26B
:10085000704701617047416170470AB1016100E072
:1008600041617047C16070474FF480320A43826132
:100870008161826182698269704702460020434B30
:1008800018684FF68073184040EA021008433F4B47
:10089000186070473E49C8617047F0B50A460023AA
:1008A00000240021002500F00046B6F1004F02D1DF
:1008B000364EF16901E0354E7168C0F3034583B2ED
:1008C00000F44016B6F5401F08D121F070612F4E9C
:1008D000766826F070662D4F7E6012E000F4801678
:1008E000B6F5801F06D1032606FA05F4A14341F0B0
:1008F000706106E0460D360103FA06F6B14341F099
:10090000706122B1460D360103FA06F6314300F05C
:100910000046B6F1004F02D11C4EF16101E01B4EC2
:100920007160F0BD30B500228B071C0F0F2303FA56
:1009300004F2164B08338C1053F824309343134CB5
:1009400008348D1044F8253023468C1053F8243099
:100950008C07240F00FA04F423430C4C08348D1048
:1009600044F8253030BD0A49DC310860704700008A
:1009700000080140000C014000100140001401403B
:1009800000180140001C014000200140000001400F
:1009900000002042DF48006840F00100DD490860A7
:1009A00008464068DC490840DA4948600846006863
:1009B000DA490840D74908600846006820F48020DA
:1009C00008600846406820F4FE0048604FF41F00AD
:1009D00088607047CF49096821F48031CD4A1160A1
:1009E0001146096821F480211160B0F5803F03D0E1
:1009F000B0F5802F0ED106E0C649096841F4803178
:100A0000C44A116007E0C349096841F4A021C14A02
:100A1000116000E000BF00BF704710B50146002222
:100A2000002300204A11012A02D1BA4C236806E0B3
:100A3000022A02D1B74C236A01E0B64C636A01F086
:100A40001F02012494401C400CB1012000E0002052
:100A500010BD38B5002000900024002500BF3120D3
:100A6000FFF7DBFF05460098401C00900098B0F5AA
:100A7000A06F01D0002DF2D03120FFF7CEFF08B1DA
:100A8000012400E00024204638BD01460020A14A90
:100A9000106820F0F80040EAC10010607047A049DB
:100AA00008607047024600209A4B586820F47C107A
:100AB00042EA01031843974B58607047984908660B
:100AC000704701460020934A506820F00300084315
:100AD000506070478F48406800F00C007047014636
:100AE00000208C4A506820F0F000084350607047A6
:100AF00001460020874A506820F4E06008435060B7
:100B0000704701460020834A506820F4605040EA54
:100B1000C1005060704729B17E4A527A02437D4B32
:100B20005A7204E07B4A527A82437A4B5A72704777
:100B30007B49D8310860704701460020754A5068EB
:100B400020F440400843506070470021714A203231
:100B50001170704A82F82010012802D004280AD1AE
:100B600004E001216B4A2032117005E00521694A39
:100B70002032117000E000BF00BF70476949086073
:100B800070476449096A0143624A116270476549C6
:100B900044390860704730B500210022002400234A
:100BA0005C4D6D6805F00C0121B1042905D00829C0
:100BB00023D105E05C4D056022E05B4D05601FE040
:100BC000544D6D6805F47012524D6D6805F4803413
:100BD000022505EB92421CB9544D554305600BE0CC
:100BE0004C4D6D6805F400351DB1504D5543056001
:100BF00002E04D4D5543056002E04B4D056000BFDE
:100C000000BF444D6D6805F0F0010909484D6B5C6B
:100C10000568DD4045603F4D6D6805F4E061090AF7
:100C2000434D6B5C4568DD4085603A4D6D6805F469
:100C30006051C90A3E4D6B5C4568DD40C560354D6D
:100C40006D6805F44041890B3A4D6B5CC568B5FB96
:100C5000F3F5056130BD29B12E4A526902432D4B8F
:100C60005A6104E02B4A526982432A4B5A61704709
:100C700029B1284A92690243264B9A6104E0254A29
:100C800092698243234B9A61704729B1214AD26904
:100C90000243204BDA6104E01E4AD26982431D4BB5
:100CA000DA61704729B11B4AD2680243194BDA60F6
:100CB00004E0184AD2688243164BDA60704729B1C3
:100CC000144A12690243134B1A6104E0114A126973
:100CD0008243104B1A6170471249403908607047CF
:100CE0000F49C86470470B49C87170470948406A8A
:100CF00040F0807007494862704701460020054A6D
:100D000092680A400AB1012000E0002070470149C2
:100D100088727047001002400000FFF8FFFFF6FEE7
:100D2000000042428004424200127A0000093D0065
:100D3000140000202400002010B50446FB48844223
:100D400009D101218803FFF7ADFF00214FF4804056
:100D5000FFF7A8FF32E0F648844209D10121480498
:100D6000FFF7ADFF00214FF40030FFF7A8FF25E0AB
:100D7000F048844209D101218804FFF7A0FF002137
:100D80004FF48020FFF79BFF18E0EB48844209D125
:100D90000121C804FFF793FF00214FF40020FFF763
:100DA0008EFF0BE0E548844208D101210805FFF7DA
:100DB00086FF00214FF48010FFF781FF10BD2DE961
:100DC000F04786B005460E460024A24600BFA14665
:100DD0000027B08900B100BF2F462C8A4CF6FF7067
:100DE0000440F08804432C82AC894EF6F310044092
:100DF000B08831890843718908430443AC81AC8AC7
:100E00004FF6FF400440B0890443AC8201A8FFF7CD
:100E1000C2FEC648874202D1DDF810A001E0DDF82D
:100E20000CA0A88900F4004040B10AEBCA0000EB16
:100E30000A1031684900B0FBF1F807E00AEBCA007C
:100E400000EB0A1031688900B0FBF1F86420B8FBB0
:100E5000F0F004012009642101FB1089A88900F445
:100E6000004040B1322000EBC900B0FBF1F000F0CF
:100E70000700044308E0322000EB09106421B0FBB6
:100E8000F1F000F00F0004432C8106B0BDE8F087BC
:100E90004FF41651016000218180C18001810C2135
:100EA000418100218181704710B502460020108ADF
:100EB0004FF2FF0318400B884C8823438C88234350
:100EC000CC8823431843108210BD0021018041804B
:100ED0008180C180704721B1828942F400528281B1
:100EE00004E082894DF6FF731A4082817047F0B5A5
:100EF0000346002400260025002040F66A17B94268
:100F000000D100BF1846C1F3421401F01F060127AB
:100F100007FA06F5012C01D10C3004E0022C01D1B6
:100F2000103000E014301AB107682F43076002E068
:100F30000768AF430760F0BD1AB1838A0B43838211
:100F400002E0838A8B4383827047028A4FF6F073F4
:100F50001A400282028A0A430282704782894FF253
:100F6000FF731A40828182890A438281704721B1CE
:100F7000828942F00202828104E082894FF6FD7389
:100F80001A4082817047028A4FF6DF731A4002824C
:100F9000028A0A430282704721B1028A42F48042E7
:100FA000028204E0028A4BF6FF731A400282704705
:100FB000C1F308028280704701468888C0F30800A8
:100FC0007047818941F0010181817047028BD2B263
:100FD0000283028B42EA012202837047028B02F4F1
:100FE0007F420283028B0A430283704721B1828AC7
:100FF00042F02002828204E0828A4FF6DF731A40B8
:101000008282704721B1828A42F01002828204E01B
:10101000828A4FF6EF731A408282704721B1828A2A
:1010200042F00802828204E0828A4FF6F7731A4087
:101030008282704721B1828942F40042828103E0BA
:101040008289C2F30E028281704721B1828A42F402
:101050000062828204E0828A4FF2FF731A40828229
:101060007047828A4FF6FB731A408282828A0A4353
:101070008282704721B1828A42F00202828204E0B9
:10108000828A4FF6FD731A40828270470246002022
:10109000B1F5007F00D100BF13880B400BB10120D8
:1010A00000E00020704701F40072B2F5007F00D12B
:1010B00000BFCA430280704770B502460024002377
:1010C0000025002040F66A16B14200D100BFC1F3EE
:1010D000421501F01F03012606FA03F3012D02D188
:1010E0009689334006E0022D02D1168A334001E092
:1010F000968A33400C12012606FA04F4168834400E
:1011000013B10CB1012000E0002070BD10B5002229
:10111000002340F66A14A14200D100BF0A12012444
:101120009440A3B2DC43048010BD000000380140AD
:101130000044004000480040004C00400050004087
:10114000ADF5D46D4FF0000A01F0BAFB4F490160D4
:1011500001F0B6FB4E49416001F0B2FB4D498160A0
:1011600010A802F0FAFD0BA803F0BAFF75E04A4898
:10117000007860B110AB4FF4807248490BA804F0BE
:1011800039FA0020444908704FF0010A0EE0444843
:10119000007858B110AB4FF4807242490BA804F0AC
:1011A00029FA00203E4908704FF0010ABAF1000FF9
:1011B00053D00123082204A911A801F0B9FADDE9EE
:1011C00008210798CDE90121009004A80DC800F27C
:1011D0006C7135A000F0E8FEDDE92021104601F039
:1011E000FDFB06460F46DDE92221104601F0F6FB25
:1011F00004460D4632463B4633A0CDE9004500F09B
:10120000D3FEDDE92483424634A000F0CDFEDDE9C3
:101210002883424636A000F0C7FEDDE92A83424615
:1012200038A000F0C1FE3BA0DDE92F1200F0BCFEAB
:1012300042A0EB9AEA9900F0B7FEDDE91E01CDE984
:101240000201DDE91C01CDE90001DDE91A83424616
:1012500045A000F0A9FE4FF0000A88E700F073F9FE
:1012600001F0EAF801F026F900F04AFB01F012FA69
:1012700045A005F0B5FA00F054FF4BA005F0B0FA18
:1012800053A000F091FEFFF75BFF0000D32600089B
:10129000D5260008D72600083B000020940800202F
:1012A0003A000020940900200D0ACAB1BCE425646C
:1012B0002D253032642D253032642C25643A256486
:1012C0003A25640D0A0000000D0ACEB3B6C8A3BAD1
:1012D00025662CBEADB6C825660D0A000D0ABAA358
:1012E000B0CEB8DFB6C8A3BA256620C3D7200000A9
:1012F0000D0ACBD9B6C8A3BA2566206B6D2F68201E
:10130000000000000D0ABABDCFF2A3BA256620B6D0
:10131000C80000000D0AD5FDD4DACAB9D3C3B5C4DC
:10132000475053CEC0D0C7A3BA25642CBFC9BCFB5D
:10133000475053CEC0D0C7A3BA2564000D0AD5FDCF
:10134000D4DACAB9D3C3B5C4B1B1B6B7CEC0D0C769
:10135000A3BA25642CBFC9BCFBB1B1B6B7CEC0D00F
:10136000C7A3BA25640000000D0A50444F50A3BA29
:1013700025662C48444F50A3BA2566A3AC56444F6B
:1013800050A3BA25660000000D0ABFAACABCB2E28B
:10139000CAD4455350383236362057694669C4A3FB
:1013A000BFE90D0A000000000D0ACDEAB3C965735C
:1013B0006F38323636B2E2CAD4A3ACBFAACABCB4C4
:1013C000ABCAE4475053CAFDBEDD0D0A0000000061
:1013D000BFAACABCB4ABCAE4475053CAFDBEDD0DB8
:1013E0000A000000704700BFFEE700BFFEE700BF35
:1013F000FEE700BFFEE7704770477047704710B5C3
:1014000040F225513E48FFF757FED8B13C48FFF760
:10141000D3FDC4B23B48B0F80004C0F30E0040F264
:10142000FF3188420EDA3749B1F80014C1F30E00DB
:10143000411C344AB2F8002461F30E023149A1F88C
:1014400000240C5440F224412D48FFF735FE0128BA
:101450000DD12C48B0F8000420F4004000F5004005
:101460002849A1F800042648FFF7A6FDC4B210BD24
:1014700010B540F225512448FFF71EFED8B122488E
:10148000FFF79AFDC4B22148B0F80004C0F30E0083
:1014900040F2FF3188420EDA1C49B1F80014C1F362
:1014A0000E00411C194AB2F8002461F30E021749DC
:1014B000A1F800240C5440F224411348FFF7FCFD2E
:1014C000012817D11148B0F8000420F4004000F5BD
:1014D00000400E49A1F800040B48FFF76DFDC4B2AF
:1014E0000BA10A4804F0DBFA08B1012000E000205B
:1014F0000A49087010BD10B501F0D2F810BD000007
:101500000038014092040020004400409000002078
:10151000434C4F5345440D0A0000000038000020A2
:1015200008B54FF4A060FEF7EFFE25208DF800000F
:1015300001208DF801008DF802008DF80300684647
:10154000FEF7E7FE08BD00B585B001210420FFF7D6
:101550008FFB01218803FFF78BFB4FF40070ADF880
:10156000100018208DF8130003208DF8120004A934
:101570004948FFF7C1F84FF48060ADF8100004202F
:101580008DF8130004A94448FFF7B6F84FF4E13092
:1015900000900020ADF80400ADF80600ADF808009A
:1015A000ADF80C000C20ADF80A0069463B48FFF787
:1015B00006FCFFF7B5FF012240F225513748FFF73F
:1015C00096FC012240F224413448FFF790FC0121AF
:1015D0003248FFF780FC05B000BD70B504460D46EB
:1015E00029462046FFF7E4FC00BF80212046FFF794
:1015F0004DFD0028F9D070BD70B506460C4600259B
:1016000000BF615D3046FFF7E8FF6D1C605D00289C
:10161000F7D100BF40213046FFF738FD0028F9D050
:1016200070BD2DE9F04105460C46260AE7B2314669
:101630002846FFF7BDFC00BF80212846FFF726FDA6
:101640000028F9D039462846FFF7B2FC00BF8021B8
:101650002846FFF71BFD0028F9D0BDE8F08170B5E2
:1016600004460D46E1B20D48FFF7A2FC00BF802101
:101670000A48FFF70BFD0028F9D0204670BD10B5D1
:10168000044600BF20210548FFF700FD0028F9D0DF
:101690000248FFF791FC10BD0008014000380140EE
:1016A000F0B503460D461646002729460A2E03D0FC
:1016B000002008702846F0BD33B9302001F8010B36
:1016C000002008702846F6E7002B03DA2D2001F8E9
:1016D000010B5B4242F210720DE093FBF2F404B98D
:1016E00037B104F1300001F8010B04FB123301277C
:1016F0000A2092FBF0F2002AEFDC00200870284656
:10170000D9E70FB470B586B006460CA8019073E017
:101710000B9800785C281CD10B98401C0B9000782B
:101720006E2809D072280FD10D213046FFF740FCFA
:101730000B98401C0B900BE00A213046FFF738FC59
:101740000B98401C0B9003E00B98401C0B9000BFC3
:101750004BE00B980078252840D10B98401C0B904B
:101760000078642818D0732833D1019810C80190EC
:101770000BE021783046FFF71BFC00BF802130468C
:10178000FFF784FC0028F9D0641C20780028F0D1F1
:101790000B98401C0B9020E0019820C801900A2271
:1017A00002A92846FFF77CFF02AC0BE02178304607
:1017B000FFF7FEFB00BF80213046FFF767FC0028E3
:1017C000F9D0641C20780028F0D10B98401C0B90B5
:1017D00003E00B98401C0B9000BF06E00B9810F83C
:1017E000011B0B903046FFF7E3FB00BF8021304622
:1017F000FFF74CFC0028F9D00B980078002887D11F
:1018000006B070BC5DF814FB08B54FF4A060FEF79D
:101810007BFD26208DF8000000208DF801008DF85A
:10182000020001208DF803006846FEF772FD08BD36
:1018300000B585B001214804FFF727FA01210420F3
:10184000FFF716FA0420ADF8100018208DF81300E9
:1018500003208DF8120004A9F848FEF74DFF082078
:10186000ADF8100004208DF8130004A9F348FEF72A
:1018700043FF4FF4E13000900020ADF80400ADF8D4
:101880000600ADF80800ADF80C000C20ADF80A0019
:101890006946EB48FFF793FA012240F22551E848E8
:1018A000FFF725FB012240F22441E548FFF71FFB2B
:1018B000FFF7AAFF0121E248FFF70DFB05B000BDCD
:1018C00008B501210820FFF7D3F94FF48070ADF877
:1018D000000010208DF8030003208DF802006946F7
:1018E000D848FEF709FF01210820FFF7C1F94FF49E
:1018F0000070ADF800006946D248FEF7FDFE08BD55
:1019000010B5FFF7DDFFFFF793FF4FF40071CD48EF
:10191000FEF79FFF4FF48071CA48FEF79CFF10BD91
:1019200010B54FF40071C748FEF795FFC64800F0A8
:1019300095FD4FF40071C348FEF78BFF10BD2DE9F4
:10194000F04106460C4615461F46C048B0F8000454
:101950006FF30E00BD49A1F800043246BCA1B8489F
:10196000FFF7CFFE1CB915B90120BDE8F0814FF497
:101970007A7107FB01F000F071FD0020B349B1F866
:101980000014C1F30E01B14A50541146B2A004F044
:1019900027FFAE48B0F800046FF30E00AB49A1F882
:1019A00000040846B0F8000420F40040A1F8000448
:1019B000B4B1ADB12146A54804F071F808B10120D9
:1019C00000E0002040B92946A04804F068F808B1BA
:1019D000012000E0002008B10120C6E70020C4E794
:1019E00044B12146994804F05AF808B10120BCE7F7
:1019F0000020BAE72946954804F051F808B10120C3
:101A0000B3E70020B1E700B58BB094A101A804F0C2
:101A100011FF4FF4FA73002295A101A8FFF78FFF81
:101A20000BB000BD10B500244FF400718548FEF7DF
:101A300010FF90A004F0D4FE924800F00FFD15E0D6
:101A4000214691A004F0CCFE4FF4FA73002288A145
:101A500093A0FFF774FF28B1214692A004F0C0FEC6
:101A6000012010BDFFF75CFF601CC4B20A2CE7DB4D
:101A70000020F6E710B5044624B1012C0AD0022C50
:101A800018D10FE040F6C4138DA279A18FA0FFF703
:101A900056FF10BD40F6C41389A275A18EA0FFF7B2
:101AA0004EFFF6E740F6C41385A271A18DA0FFF7A3
:101AB00046FFEEE70020ECE730B59FB004460D4648
:101AC0002B4622468AA101A804F0B4FE41F28833D5
:101AD000002267A101A8FFF732FF1FB030BD70B52B
:101AE000A0B004460D4616462B46224685A102A804
:101AF000009604F09FFE4FF47A7300225CA102A8C6
:101B0000FFF71DFF20B070BD10B586B004460CB1C4
:101B1000012000E00020024680A101A804F08AFE16
:101B20004FF4FA73002252A101A8FFF708FF06B094
:101B300010BDF0B5B9B006460F4614461D466421E7
:101B400020A803F0A1FF16B1012E10D107E03B46FB
:101B500076A277A120A8009404F06CFE08E03B4632
:101B600077A273A120A8009404F064FE00E000BFF7
:101B700000BF052D06DA20AB2A4672A102A804F0A8
:101B800059FE04E020AA74A102A804F053FE4FF409
:101B90007A6375A236A102A8FFF7D1FE39B0F0BD75
:101BA00070B5BCB004460D461646FCB12B4601226A
:101BB00071A11EA804F03EFE324674A1684604F0EE
:101BC00039FE4FF4FA73002229A11EA8FFF7B7FED1
:101BD00050B14FF4FA73002225A16846FFF7AFFE1B
:101BE00010B101203CB070BD0020FBE72B46002265
:101BF00061A11EA804F01EFE4FF4FA7300221CA17E
:101C00001EA8FFF79CFEEDE710B54FF4FA73002213
:101C100017A162A0FFF793FE68B164A10B4803F01F
:101C20003EFF08B1022010BD63A1084803F037FF52
:101C300010B10320F7E7CCE0C4E000000008014049
:101C400000440040000C014020A10700900000204B
:101C500025730D0A000000002573000041542B433A
:101C600057444843505F4355523D312C31000000EA
:101C70004F4B00000D0A4154B2E2CAD42E2E2E2E34
:101C80002E0D0A0080841E000D0A4154B2E2CAD40F
:101C9000B4CECAFD2025642E2E2E2E2E2E0D0A0027
:101CA000415400000D0A4154B2E2CAD4C6F4B6AFA2
:101CB000B3C9B9A62025642E2E2E2E2E2E0D0A0075
:101CC0006E6F206368616E676500000041542B43AE
:101CD000574D4F44453D310041542B43574D4F44E0
:101CE000453D320041542B43574D4F44453D330051
:101CF00041542B43574A41503D222573222C222523
:101D00007322000041542B43575341503D22257309
:101D1000222C222573222C312C25640041542B4384
:101D200049504D55583D2564000000005443500073
:101D3000222573222C222573222C257300000000FB
:101D40005544500041542B43495053544152543D43
:101D500025642C257300000041542B4349505354F3
:101D60004152543D25730000414C52454159204396
:101D70004F4E4E454354000041542B434950534568
:101D8000525645523D25642C2573000041542B4387
:101D9000495053544F3D25730000000041542B43DC
:101DA000495053544154555300000000535441547A
:101DB00055533A320D0A00005354415455533A33A7
:101DC0000D0A000085A1884803F069FE08B10420CF
:101DD00029E7002027E710B500244FF4FA7300220A
:101DE000AFF27411AFF24C00FFF7A9FD002831D01B
:101DF0007EA17D4803F053FE10B144F0010401E0E0
:101E000024F001047DA1784803F049FE10B144F0AC
:101E1000020401E024F002047CA1734803F03FFEB9
:101E200010B144F0040401E024F004047BA16E48E6
:101E300003F035FE10B144F0080401E024F008047A
:101E40007AA1694803F02BFE10B144F0100401E0C0
:101E500024F01004204610BD2DE9F04105460F4640
:101E60004FF4FA730022AFF2F81174A0FFF767FD88
:101E700075A15D4803F013FE06460EB1B61D02E0E3
:101E80000020BDE8F081002409E0305D2855285D80
:101E9000222802D10020285503E0601CC4B2BC42B5
:101EA000F3DB00BF0120ECE710B54FF4FA7300221A
:101EB000AFF2442166A0FFF742FD08B9002010BD33
:101EC0004FF4FA7366A2AFF2582166A0FFF737FD10
:101ED000F5E710B5664800F0C1FA66A16648FFF75D
:101EE00010FC664800F0BAFA10BD2DE9F04186B04A
:101EF00007460C4615461E464FF0000847B12246DD
:101F0000AFF2AC215C48FFF7FCFB4FF001081BE08F
:101F1000052E06DAAB1C324659A101A804F08AFC52
:101F200004E0AA1C5BA101A804F084FC6423002245
:101F30005CA101A8FFF703FD4FF4FA7300225AA138
:101F40002046FFF7FCFC8046404606B0BDE8F08125
:101F500070B5044600252448B0F800046FF30E0065
:101F60002149A1F800040846B0F8000420F400401C
:101F7000A1F8000400BF1C48B0F80004C00B002802
:101F8000F9D000201849B1F80014C1F30E01164A27
:101F900050540CB1154605E045A1134803F07FFDF0
:101FA00000B1114D284670BD0FB410B59AB01DA8F0
:101FB000009001A8009A1C9904F06AFC01A803F0A3
:101FC00080FD04460023224601A90120FFF78DFF72
:101FD000002000901AB010BC5DF814FB535441541B
:101FE00055533A340D0A0000900000202B4349500D
:101FF0005354415455533A302C0000002B43495060
:102000005354415455533A312C0000002B4349504E
:102010005354415455533A322C0000002B4349503D
:102020005354415455533A332C0000002B4349502C
:102030005354415455533A342C00000041542B431F
:102040004946535200000000415049502C220000E4
:1020500041542B4349504D4F44453D310000000051
:102060003E00000041542B43495053454E4400006C
:1020700040420F002B2B2B000044004020A1070002
:1020800041542B43495053454E443D25642C25640F
:102090000000000041542B43495053454E443D2518
:1020A000640000003E20000053454E44204F4B008A
:1020B0002B4950440000000070B5054600240DE097
:1020C000804850F82410284603F0E9FC08B10120AC
:1020D00000E0002000B103E0601CC4B2042CEFDB80
:1020E00000BF34B1012C08D0022C0AD0032C15D12A
:1020F0000BE002207449086011E004207249086076
:102100000DE008207049086009E002206E49091FAF
:102110000860042008600820086000E000BF00BFDD
:1021200070BD10B569A004F05BFB6FA004F058FB14
:102130004FF480717248FEF78CFB00BFFFF772FC12
:102140000028FBD06FA004F04BFB00BF0020FFF77E
:1021500091FC0028FAD073A004F042FB00BF78A1E4
:102160007AA0FFF7A9FC0028F9D07AA004F038FB88
:1021700000BF0020FFF7C8FC0028FAD07BA004F0C5
:102180002FFB00BF052380A281A10020FFF7D1FC17
:102190000028F7D082A004F023FB00BFFFF784FEE5
:1021A0000028FBD085A004F01BFB8AA004F018FBDC
:1021B00010BD70B58C48B0F800040121B1EBD03FE0
:1021C00028D100240DE08848015D8848FEF7F0FE24
:1021D00000BF40218548FEF759FF0028F9D0601C58
:1021E00084B28148B0F80004C0F30E00A042EADCDB
:1021F0007D48B0F800046FF30E007B49A1F800049D
:102200000846B0F8000420F40040A1F80004084695
:10221000FFF752FF7648B0F80004C00B40B300242B
:102220000DE07348015D7348FEF7C2FE00BF402118
:102230007048FEF72BFF0028F9D0601C84B26C4870
:10224000B0F80004C0F30E00A042EADC6848B0F821
:1022500000046FF30E006649A1F800040846B0F8C8
:10226000000420F40040A1F800040846FFF724FF12
:1022700061480078002824D0FFF72BFE00BFFFF74D
:10228000C3FC0546002DFAD0042D15D15BA004F047
:10229000A7FA00BF2AA12DA0FFF70EFC0028F9D055
:1022A00000BF052338A23AA10020FFF742FC002816
:1022B000F7D05AA004F094FA00BFFFF7F5FD00280C
:1022C000FBD070BD28000020140801400D0AD5FD88
:1022D000D4DAC5E4D6C32045535038323636202EE2
:1022E0002E2E2E2E2E0D0A000D0ACAB9C4DC204552
:1022F000535038323636202E2E2E2E2E2E0D0A001A
:10230000000C01400D0AD5FDD4DAC5E4D6C3B9A44A
:10231000D7F7C4A3CABD20535441202E2E2E2E2EF3
:102320002E0D0A000D0AD5FDD4DAC1ACBDD320575D
:10233000694669202E2E2E2E2E2E0D0A000000003A
:10234000333334343535363600000000686F6E6F35
:10235000720000000D0ABDFBD6B9B6E0C1ACBDD31A
:10236000202E2E2E2E2E2E0D0A0000000D0AD5FD39
:10237000D4DAC1ACBDD320536572766572202E2E9F
:102380002E2E2E2E0D0A00003830303000000000B6
:102390003139322E3136382E34332E313833000075
:1023A0000D0ABDF8C8EBCDB8B4ABB7A2CBCDC4A372
:1023B000CABD202E2E2E2E2E2E0D0A000D0AC5E48B
:1023C000D6C3204553503832363620CDEAB1CF0D32
:1023D0000A0000000D0ABFAACABCCDB8B4AB2E2EAD
:1023E0002E2E2E2E0D0A00009204002000440040E4
:1023F0009000002000380140380000200D0AD5FD73
:10240000D4DAD6D8C1ACC8C8B5E3BACDB7FECEF1E0
:10241000C6F7202E2E2E2E2E2E0D0A000D0AD6D8EF
:10242000C1ACC8C8B5E3BACDB7FECEF1C6F7B3C9E3
:10243000B9A60D0A000000001A48006840F080703C
:10244000184908600020184948600846006840F0B4
:1024500001000860704714484068704731B5002398
:1024600012480068124DB0FBF5F0009D00FB05F42A
:1024700000BFFFF7F0FF024611E0FFF7ECFF014657
:1024800091420CD0914202D9881A034403E0C2F170
:10249000FF30084403440A46A34200D300E0ECE7BF
:1024A00000BF38BDFCED00E0001000E0000000209F
:1024B00040420F0008B501210420FEF7D9FB02209D
:1024C000ADF8000010208DF8030003208DF8020005
:1024D00069462C48FEF710F90420ADF80000694663
:1024E0002848FEF709F90820ADF80000694625489C
:1024F000FEF702F902212348FEF7ABF90421214837
:10250000FEF7A7F908211F48FEF7A3F908BD1E48EA
:102510000078401C1C49087008460078012804D047
:1025200002280CD003281FD114E0022015491431D1
:1025300008600420091F08600820086020E00220CD
:102540001049103108600420091D08600820091F87
:10255000086015E002200B49103108600420086073
:102560000820091D08600BE00220064910310860B0
:10257000042008600820086000200349087000BF9C
:1025800000BF7047000801403900002000B585B049
:1025900001210820FEF76CFB01218804FEF775FB82
:1025A0004FF48060ADF8100018208DF81300032060
:1025B0008DF8120004A9B748FEF79EF84FF40060AA
:1025C000ADF8100004208DF8130004A9B148FEF7FF
:1025D00093F84FF4165000900020ADF80400ADF8C9
:1025E0000600ADF80800ADF80C000C20ADF80A00AC
:1025F0006946A948FEF7E3FB0121A748FEF76BFCFB
:1026000005B000BD08B54FF4C060FDF77DFE0D209C
:102610008DF8000001208DF8010000208DF80200E7
:1026200001208DF803006846FDF773FE08BD00B574
:102630008BB001210846FEF70EFB9748001D009065
:1026400096480190002002904FF400700390002003
:10265000049080200590002006900790202008908C
:10266000C001099000200A9069468D48FDF75CFF83
:10267000FFF7C8FF012206218948FDF78CFF0121E1
:102680008748FDF77CFF012240218348FEF754FC78
:102690000BB000BD10B5FFF779FFFFF7C8FF10BD05
:1026A00010B54FF48060FDF7A4FF30B101207D49E3
:1026B00008708002FDF792FF0AE04FF40070FDF70A
:1026C00098FF28B10120784908704002FDF786FF85
:1026D00010BD7047704770B505460E4673A004F0F4
:1026E0007FF8002405E0295D73A004F079F8601CF0
:1026F00084B2B442F7DB71A004F072F870BD0246F8
:1027000002F5FA6101F0030080B94FF4C87091FB43
:10271000F0F300FB131028B1642091FBF0F300FBF1
:10272000131008B1012070470020FCE70020FAE7F1
:102730002DE9FF4F81B080468946164616B905B08F
:10274000BDE8F08F0C2E00DDF9E7D8F800A0D8F82E
:102750000440D8F80850D8F80C70D8F810B0D8F861
:10276000140000900498002844D0B819182801D209
:10277000374480E0B819A0F11807012C09D0032CC8
:1027800007D0052C05D0072C03D0082C01D00A2C2B
:1027900006D11F2D01D26D1C6DE00125641C6AE07D
:1027A000042C05D0062C03D0092C01D00B2C06D10B
:1027B0001E2D01D26D1C5EE00125641C5BE0022C25
:1027C0000DD11D2D06D01C2D07D10AF0FF00FFF7FB
:1027D00096FF10B90125641C4DE06D1C4BE00C2CDC
:1027E00049D11F2D01D26D1C45E0012501240AF1BC
:1027F000010A40E0B74201D3BF1B3CE007F11800DB
:10280000871B022C09D0042C07D0062C05D0082CDD
:1028100003D0092C01D00B2C06D1012D01D96D1E3E
:1028200029E01F25641E26E0052C05D0072C03D0C7
:102830000A2C01D00C2C06D1012D01D96D1E1AE0F5
:102840001E25641E17E0032C0BD1012D07D10AF0C1
:10285000FF00FFF754FF10B91C25641E0BE06D1E2E
:1028600009E0012C07D1012D01D96D1E03E01F25C0
:102870000C24AAF1010AC9F800A0C9F80440C9F85B
:102880000850C9F80C70C9F810B00098C9F81400C5
:1028900000BF54E7000C01400048004094080020AD
:1028A000300002403B0000203A0000200D0A496E33
:1028B000666F3A2000000000256300000A00000057
:1028C0003B4870470FB430B5ADF2044DFFF7F8FF49
:1028D0000568ADB10DF21440CDF8000440F2FF31AF
:1028E0006846DDF80034DDF8102403F0B7FF044635
:1028F0000020CDF80004002C02DD21466846A847E0
:102900000DF2044D30BC5DF814FB70B506460C4664
:10291000FFF7D6FF05681DB114B121463046A84720
:1029200070BD0FB430B5ADF2044DFFF7C9FF456877
:10293000ADB10DF21440CDF8000440F2FF3168460D
:10294000DDF80034DDF8102403F088FF0446002091
:10295000CDF80004002C02DD21466846A8470DF2A0
:10296000044D30BC5DF814FB0FB430B5ADF2044D2E
:10297000FFF7A6FF8568ADB10DF21440CDF8000455
:1029800040F2FF316846DDF80034DDF8102403F032
:1029900065FF04460020CDF80004002C02DD21462E
:1029A0006846A8470DF2044D30BC5DF814FB0000EA
:1029B0003C00002070B504460D46F74AF74B204610
:1029C000294603F07BF970BD70B504460D46F24A06
:1029D000F24B2046294603F0E3F970BD2DE9FC5F78
:1029E00004460D460022EE4B2046294603F0D8F956
:1029F000804603F055FA824603F041FA06460F4638
:102A00000022E74B3046394603F058F9804622460B
:102A10002B4603F050F982460022E24B03F0C0F946
:102A200032463B46CDE9000103F0A1F804460D46CD
:102A300020462946BDE8FC9F2DE9FC5F04460D4673
:102A40006A462046294605F07BFF82468B460022D7
:102A5000D44B5046594603F031F906460F46002242
:102A6000CF4BDDE9000103F029F9804632463B46B1
:102A700003F07DF804460D4620462946BDE8FC9F3C
:102A80002DE9F04104460D4620462946FFF7A6FFF2
:102A90000646FFF78FFFBDE8F0812DE9F0410446BF
:102AA0000D4620462946FFF78FFF0646FFF7C4FF75
:102AB000BDE8F0812DE9FC5F04460D4616461F4631
:102AC00000224FF080433046394605F083FF8046B0
:102AD000894600224FF080432046294605F07AFFC0
:102AE000824642464B4603F042F8CDE9000106F02B
:102AF000ADFCBDE8FC9F70B504460D460022AA4B14
:102B00002046294603F0DAF870BD70B504460D463C
:102B10000022A54B2046294603F042F970BD2DE95D
:102B2000F04F8FB082468B46DAE902432246DBE95A
:102B30000261304603F0BCF8804605F055FECDE951
:102B40000201DAE90021104605F04EFE04460D466A
:102B5000DBE90021104605F047FE064622462B46DB
:102B600003F0ACF8CDE90001DDE9022303F0A6F89B
:102B7000CDE90601DAE90021104606F017FC04460B
:102B80000D46DBE90021104606F010FC0646224601
:102B90002B4603F093F8CDE90401DDE9062302F0AA
:102BA000E6FFCDE9080105F0CBF900227F4BCDE926
:102BB0000A0103F083F8CDE90C01DDE90C010FB047
:102BC000BDE8F08F0FB5DBB05C9903C9CDE91E01FC
:102BD0005B9903C9CDE91C01DDE91E2303F080F9EF
:102BE0001ED15C99D1E90201CDE91E015B99D1E9C1
:102BF0000201CDE91C01DDE91E2303F071F90FD1BB
:102C00005D9818B100225D990A604A605E9818B11B
:102C100000205E9908604860002001465FB000BD5A
:102C2000634964485891599040076049223157914F
:102C3000569000206049599B589A03F039F8CDE925
:102C40001E01579B569A03F039F855915490569AA5
:102C50001046579B194603F031F853915290549AFD
:102C60001046559B194603F029F8519150905B99F5
:102C7000D1E90201CDE91E015C98C1688068CDE907
:102C80001C01DDE91E2303F013F84F914E905B9970
:102C900003C94D914C905C9903C94B914A904D9951
:102CA0004C9806F007FCCDE91C0100204249599BD5
:102CB000589A02F0FDFFCDE91A01DDE91C2302F06C
:102CC000FDFFCDE91E0105F0B1FB499148904B99FC
:102CD0004A9806F0EFFBCDE91C0100203649599BCC
:102CE000589A02F0E5FFCDE91A01DDE91C2302F054
:102CF000E5FFCDE91E0105F099FB47914690499902
:102D0000489806F053FB459144904799469806F041
:102D10004DFB439142904999489805F065FD4191DA
:102D200040904799469805F05FFDCDE93E010021AE
:102D30003C913D91DDE93C0106F038FBCDE93A01DB
:102D4000DDE93C0105F050FDCDE938010020369069
:102D50003790DDE936231046194602F0AFFFCDE982
:102D600034010020329033904F994E98CDE93001D4
:102D7000DDE9300106F01AFBCDE92E01DDE9300175
:102D800005F032FDCDE92C01DDE93001CDE92A0164
:102D90001420299069E10000399D52A246DF913F3D
:102DA0000000594000004E40000014408454584137
:102DB00028E1F3845A776B3F0000F03FDDE92E23D2
:102DC000DDE93E0102F07AFFCDE91E01DDE93E2397
:102DD0004599449802F072FFCDE90E01DDE92C23FC
:102DE00002F06CFFCDE9120140A80FC802F066FFA7
:102DF000CDE91001DDE9122302F05AFFCDE91C01F3
:102E0000DDE91C231046194602F058FFCDE91001F8
:102E1000DDE91E231046194602F050FFCDE90E01F0
:102E2000DDE9102302F0A3FECDE9120106F00EFB4E
:102E3000CDE93A01DDE93E234199409802F03EFF99
:102E4000CDE90E01DDE92C2302F038FFCDE91201B6
:102E5000439B429A4599449802F030FFCDE9100116
:102E6000DDE9122302F083FECDE9380100BFDDE980
:102E70003E234199409802F021FFCDE91001DDE9A0
:102E80002E2302F01BFFCDE91201DDE93A2302F007
:102E900087FFCDE91A01DDE91A0105F08FF9CDE9C7
:102EA000120105F0A1FCCDE91801DDE91823104657
:102EB000194602F003FFCDE9320100204FF08041B6
:102EC000459B449A02F0FAFECDE90E01439B429ADB
:102ED00002F0F4FECDE91001DDE9322302F060FFDB
:102EE000CDE91201DDE9382302F0E5FECDE9360136
:102EF000DDE936231046194602F0E0FECDE9340143
:102F00000020FE49DDE9322302F0D8FE0022FC4B0E
:102F1000CDE90A0102F0CFFECDE90C01599B589A88
:102F200002F0CCFE0022F64BCDE90E0102F01FFEAE
:102F30000022F44BCDE912015999589802F030FF64
:102F4000CDE90E01DDE9322302F0B8FECDE9100132
:102F5000DDE9122302F0B2FECDE91601DDE9300110
:102F6000CDE91401DDE93A0105F028F9CDE93C018C
:102F700000204FF08041DDE9342302F09FFE002263
:102F8000DF4B5B42CDE9000102F0F1FDCDE9040128
:102F9000DDE93823DDE9160102F090FECDE90201FA
:102FA000DDE9042302F08AFECDE90601DDE93623DE
:102FB00002F0DDFDCDE90A01DDE93A23DDE9160184
:102FC00002F07CFECDE90801DDE90A2302F076FE7D
:102FD000CDE90C01DDE93C2302F0C9FDCDE910018A
:102FE0000020C949DDE9162302F062FECDE90A019D
:102FF000599B589A02F062FECDE90C01DDE91A23D3
:1030000002F05CFECDE90E01DDE9102302F056FE70
:10301000CDE912014F9B4E9A02F0A9FDCDE9300196
:10302000DDE93023DDE9140102F042FECDE92A0199
:1030300000221346DDE92A0102F052FF05D2DDE944
:103040002A0181F00041CDE92A01DDE9300106F0D5
:10305000ADF9CDE92E01DDE9300105F0C5FBCDE983
:103060002C012998401E299000BFA84AA84BDDE9F1
:103070002A0102F04DFF03D2299800283FF79EAEA7
:10308000519B509A5399529802F012FECDE91C01BF
:10309000DDE9322302F012FECDE91E01519B509A68
:1030A00002F07EFECDE9260100209A49DDE92623C3
:1030B00002F004FE0022984BCDE9100102F0FBFD66
:1030C000CDE91201DDE9262302F0F8FD0022934B41
:1030D000CDE9140102F04BFDCDE91601DDE926230F
:1030E00002F0ECFD00228E4BCDE9180102F03FFD0D
:1030F00000228C4BCDE91C01DDE9260102F050FED7
:10310000CDE91A01DDE91C2302F0D8FD00227E4B37
:10311000CDE91E0102F02BFDCDE9240100208249FA
:10312000DDE9262302F0CAFD0022804BCDE9120121
:1031300002F0C1FDCDE91401DDE9262302F0BEFD58
:1031400000227B4BCDE9160102F011FDCDE91801FB
:10315000DDE9262302F0B2FD0022764BCDE91A010B
:1031600002F005FD0022744BCDE91E01DDE92601C8
:1031700002F016FECDE91C01DDE91E2302F09EFDE2
:10318000CDE9220100205E49DDE9342302F096FDFD
:1031900000226A4BCDE90C0102F0E9FCCDE91001F7
:1031A00000205749DDE93A2302F088FDCDE9060108
:1031B000DDE93A2302F082FD0022604BCDE90801EF
:1031C00002F0D5FC00225E4BCDE90C01DDE92201C5
:1031D00002F0E6FDCDE90801DDE9362302F06EFDDF
:1031E000CDE90A01DDE90C2302F068FDCDE90E010D
:1031F000DDE9102302F062FDCDE9140100204FF05B
:103200008041DDE9342302F059FD00223C4B5B4252
:10321000CDE90E0102F0ABFCCDE91001DDE9382368
:1032200002F04CFDCDE91201DDE9142302F040FD6E
:103230000022334BCDE91801DDE9220102F0B0FD97
:10324000CDE91601DDE9182302F038FDCDE91A01B8
:10325000DDE9362302F08BFCCDE91E01DDE93A23DE
:10326000DDE9220102F02AFDCDE91C01DDE91E2382
:1032700002F024FDCDE920015D9870B3DDE93E2325
:103280004599449802F01AFDCDE91401DDE92C239B
:1032900002F014FDCDE9180140A80FC802F00EFDA0
:1032A000CDE91601DDE9182302F002FDCDE91C018C
:1032B000DDE92E23DDE93E0102F000FDCDE91A0132
:1032C000DDE91C2302F06CFDCDE91E01DDE91E01E4
:1032D00005F0ACF85D9A03C200BF5E9868B140A8E3
:1032E0000FC802F0EBFCCDE91401DDE92C2302F05C
:1032F000E5FCCDE91801459924E049E000000840CB
:1033000000001040000030400000F03F11EA2D8125
:103310009997713D00E0654000007440000088C04E
:103320000000B0400000D040008047400080524084
:10333000000060C00000704000009040000008C025
:103340000000184081F000414498CDE91401DDE906
:103350003E2302F0B3FCCDE91601DDE9182302F0AB
:1033600006FCCDE91C01DDE92E234199409802F0CD
:10337000A5FCCDE91A01DDE91C2302F011FDCDE920
:103380001E01DDE91E0105F051F85E9A03C200BF7F
:10339000DDE92023DDE93C0102F08AFCCDE91E01D4
:1033A000DDE924235599549802F088FCCDE91C01ED
:1033B000DDE91E2302F082FC30E42DE9F04F93B0EA
:1033C0008146884616461F46DDE91C4599E80F00F0
:1033D000CDE91023CDE90E0101200D900022FE4B16
:1033E0002046294602F0DCFC04460D4630463946AC
:1033F000FFF7E0FA06460F463046394605F0F4F985
:10340000CDE904012046294605F0D0FFCDE90001B1
:10341000DDE90E21104605F0E7F98246DDE90023DB
:1034200002F04CFCCDE90201DDE9042302F046FC88
:10343000CDE908012046294605F0D6F982468B469B
:10344000DDE90E21104605F0B1FF52465B46CDE99D
:10345000040102F033FCCDE90601DDE9082302F0A6
:1034600086FBCDE90A0104F0A9FEC8E90001D8E90C
:103470000021104605F09AFF82468B46DDE90E21B9
:10348000104605F093FF52465B46CDE9000102F07D
:1034900015FCCDE904012046294605F0A5F9CDE942
:1034A0000201DDE9042302F003FCCDE90801DDE9B6
:1034B0000E21104605F098F9CDE904012046294671
:1034C00005F074FF82468B463046394605F06EFFA4
:1034D00052465B46CDE9000102F0F0FBCDE9020166
:1034E000DDE9042302F0EAFBCDE90601DDE908236A
:1034F00005F0ACF8CDE90A01DDE910A3524602F06F
:1035000036FBC8E90201D8E90021104603F0E6F9CC
:1035100028B9D8E90221104603F0E0F950B10021A2
:10352000C8F80010C8F80410C8F80810C8F80C1043
:1035300000200D900D9813B0BDE8F08F1FB5DCB0E2
:10354000639921F000416298A44AA54BCDE9180186
:1035500002F0C6FC21D25D995C9890E81C00C0681E
:1035600081E81C00C860649818B1649A5F995E98FD
:1035700003C25D9903C9CDE9180103F0AFF950B951
:103580005D99D1E90201CDE9180103F0A7F910B95D
:10359000012060B010BD0020FBE79248924B5B9386
:1035A0005A90C006914959915890002090495B9BD0
:1035B0005A9A02F07DFBCDE91801599B589A02F006
:1035C0007DFB57915690589A1046599B194602F028
:1035D00075FB55915490569A1046579B194602F028
:1035E0006DFB539152905C9903C951915090519940
:1035F000509805F05FFFCDE9180100207C495B9BE6
:103600005A9A02F055FBCDE91601DDE9182302F0C4
:1036100055FB4F914E904E9A10464F9B194602F023
:103620004DFB0022724BCDE9140102F0A0FACDE966
:10363000160105F00BFF02460B46CDE918010020EC
:103640006B4902F0ADFB4B914A904B9B4A9A4F99C4
:103650004E9802F033FB4D914C90639962984991DA
:1036600048905F995E98479146904799469805F033
:103670009DFE459144904799469805F0B5F84391D1
:10368000429000BF439B429A4F994E9804F0DEFF50
:1036900041914090459B449A4B994A9802F00EFB09
:1036A000CDE93E01DDE93E231046194602F006FB56
:1036B00000224F4BCDE9180102F0FDFACDE93C01A3
:1036C000DDE93C0105F0C2FE539B529A559954988E
:1036D00002F0EEFACDE91601DDE93C2302F0EEFA44
:1036E000CDE91801539B529A02F05AFBCDE93A01F9
:1036F00000204049DDE93A2302F0E0FA00223E4B87
:10370000CDE90A0102F0D7FACDE90C01DDE93A234F
:1037100002F0D4FA0022394BCDE90E0102F027FA6B
:10372000CDE91001DDE93A2302F0C8FA0022344B5A
:10373000CDE9120102F01BFA0022324BCDE916014D
:10374000DDE93A0102F02CFBCDE91401DDE9162395
:1037500002F0B4FA0022264BCDE9180102F007FA74
:10376000CDE9380100202849DDE93A2302F0A6FA24
:103770000022264BCDE90C0102F09DFACDE90E01A5
:10378000DDE93A2302F09AFA0022214BCDE910013B
:1037900002F0EDF9CDE91201DDE93A2302F08EFAEB
:1037A00000221C4BCDE9140102F0E1F900221A4B72
:1037B000CDE91801DDE93A0102F0F2FACDE916018E
:1037C000DDE9182302F07AFACDE93601DDE9382384
:1037D0005799569822E0000000EAB84011EA2D817E
:1037E0009997713D28E1F3845A776B3FA65458416D
:1037F0000000F03F00E0654000007440000088C019
:103800000000B0400000D04000804740008052409F
:10381000000060C0000070400000904002F04EFACE
:1038200002460B46CDE918014999489802F0B8FACA
:10383000CDE93401DDE93401CDE93201DDE93201C0
:1038400005F0B4FDCDE92E01DDE9320104F0CCFF35
:10385000CDE92C0100204FF08041419B409A02F0BD
:103860002DFACDE91601DDE9322302F080F9CDE928
:10387000180104F0B9FFCDE92A01DDE92A23104639
:10388000194602F01BFACDE9280100BFFD49FE48A8
:10389000CDE9301014202590AFE000204FF080419A
:1038A000419B409A02F00AFACDE91601DDE9322384
:1038B00002F05DF9CDE9180104F096FFCDE92A0187
:1038C000DDE92A231046194602F0F8F9CDE928016E
:1038D000DDE9320105F06AFDCDE92E01DDE93201B5
:1038E00004F082FFCDE92C010020E849DDE928231E
:1038F00002F0E4F90022E64BCDE9060102F037F9C7
:10390000CDE90A010020E149DDE92E2302F0D6F9D4
:10391000CDE90001DDE92E2302F0D0F90022DC4BD5
:10392000CDE9020102F023F90022DA4BCDE90601CC
:10393000DDE9360102F034FACDE90201DDE92A239E
:1039400002F0BCF9CDE90401DDE9062302F0B6F985
:10395000CDE90801DDE90A2302F0B0F9CDE90E0155
:1039600000204FF08041DDE9282302F0A7F9002272
:10397000C64B5B42CDE9080102F0F9F8CDE90A0136
:10398000DDE92C2302F09AF9CDE90C01DDE90E23E3
:1039900002F08EF90022BD4BCDE91201DDE93601BE
:1039A00002F0FEF9CDE91001DDE9122302F086F9FB
:1039B000CDE91401DDE92A2302F0D9F8CDE9180197
:1039C000DDE92E23DDE9360102F078F9CDE91601B3
:1039D000DDE9182302F072F9CDE92601DDE93201B3
:1039E000CDE93001DDE92623DDE9340102F0BFF83D
:1039F000CDE932012598401E2590DDE93023DDE92F
:103A0000320102F055F921F00041A34AA34BCDE960
:103A1000180102F07DFA03D2259800283FF73DAF48
:103A2000DDE92C234B994A9802F048F9CDE91401BD
:103A3000439B429A02F042F9CDE91801DDE92E23B9
:103A40004D994C9802F03AF9CDE91601DDE91823B9
:103A500002F02EF9CDE92201DDE9222310461946B4
:103A600002F02CF9CDE90E01DDE93E23104619469E
:103A700002F024F9CDE90C01DDE90E2302F077F81C
:103A8000CDE9100105F0E2FCCDE9140100208449E4
:103A90005B9B5A9A02F00CF9CDE91201DDE914237F
:103AA00002F00CF9CDE91801DDE92E234B994A9873
:103AB00002F004F9CDE91001439B429A02F0FEF8AE
:103AC000CDE91401DDE92C234D994C9802F0F6F86C
:103AD000CDE91201DDE9142302F049F8CDE9160120
:103AE000DDE9182304F0B2FDCDE92001DDE92E2344
:103AF0004D994C9802F0E2F8CDE91001439B429AAF
:103B000002F0DCF8CDE91401DDE92C234B994A9849
:103B100002F0D4F8CDE91201DDE9142302F0C8F86F
:103B2000CDE91801459B449ADDE92E0102F0C6F863
:103B3000CDE91601DDE9182304F088FDCDE91E0169
:103B400000205849DDE93C2302F0B8F800224F4B31
:103B5000CDE9100102F0AFF8CDE912015B9B5A9A52
:103B600002F0ACF80022494BCDE9140101F0FFFF4F
:103B700000224D4BCDE918015B995A9802F010F9DB
:103B8000CDE91401DDE93C2302F098F8CDE91601F6
:103B9000DDE9182302F092F8CDE91C0100204FF076
:103BA0008041DDE9282302F089F80022374B5B428F
:103BB000CDE9060101F0DBFFCDE90A01DDE92C23A7
:103BC000DDE91C0102F07AF8CDE90801DDE90A23FC
:103BD00002F074F8CDE90C01DDE92A2301F0C7FFFA
:103BE000CDE91001DDE92E23DDE91C0102F066F8C4
:103BF000CDE90E01DDE9102302F060F8CDE91201F4
:103C0000DDE9322301F0B3FFCDE91601002024499C
:103C1000DDE91C2302F04CF8CDE910015B9B5A9AB8
:103C200002F04CF8CDE91201DDE93E2302F046F83E
:103C3000CDE91401DDE9162302F040F8CDE91801C1
:103C4000DDE91E2302F037F8CDE91A015C98D0E9CE
:103C500002120846CDE9180219A90EC901F087FF22
:103C60005D9AC2E902015D9ADDE9200103C2649810
:103C7000E0B3DDE92C234B994A9802F01FF8CDE917
:103C8000120113E0182D4454FB211940000010408C
:103C9000000008C00000184011EA2D819997713D7D
:103CA0000000F03F0000084000003040439B429A73
:103CB00002F004F8CDE916014D9981F000414C98CD
:103CC000CDE91201DDE92E2301F0F8FFCDE9140161
:103CD000DDE9162301F04BFF02460B46CDE9180142
:103CE000DDE93E0104F0B2FC649A03C25D9903C9A8
:103CF000CDE9180102F0F2FD48B95D99D1E9020160
:103D0000CDE9180102F0EAFD08B9012041E40020E4
:103D10003FE470B504460D46D4E910211046FEF785
:103D2000AFFEC5E90001D4E912211046FEF7A8FE56
:103D3000C5E9020170BD70B504460D46D4E9002105
:103D40001046FEF7AAFEC5E91001D4E9022110468B
:103D5000FEF7A3FEC5E9120170BD10B504464FF48D
:103D6000CC61204601F090FE201D01F0D7FC002020
:103D700020620120606210BDFEB506460D46144665
:103D80000027062D06D0082D16D0092D15D00A2D96
:103D900028D113E004F11400011F0B1FFEA2CDE98E
:103DA00000102946304601F038FD032801D10120DA
:103DB00000E0002007461AE000BF00BF04F1180031
:103DC000011F0A1F131FCDE900210290F5A2294609
:103DD000304601F022FD042801D1012000E000203E
:103DE000074604E0F3A0FEF79CFD002700BF00BFDC
:103DF0000FB10020FEBD4FF0FF30FBE770B5054668
:103E00000C46052C01DA002070BDF348052201683C
:103E1000284601F067FE08B90120F5E7EE480522C3
:103E20004168284601F05EFE08B90220ECE7EA4846
:103E300005228168284601F055FE08B90420E3E711
:103E4000E5480522C168284601F04CFE08B9082063
:103E5000DAE7E14805220169284601F043FE08B986
:103E60001020D1E7DC4805224169284601F03AFEDE
:103E700008B92020C8E7D84805228169284601F002
:103E800031FE08B94020BFE7D3480522C169284662
:103E900001F028FE08B98020B6E7CF480522016A64
:103EA000284601F01FFE10B94FF48070ACE7CA48F5
:103EB0000522416A284601F015FE10B94FF4007042
:103EC000A2E7C5480522816A284601F00BFE10B919
:103ED0004FF4806098E7C0480522C16A284601F087
:103EE00001FE10B94FF400608EE7BB480522016B5C
:103EF000284601F0F7FD10B94FF4805084E7002008
:103F000082E72DE9F04704460F46154604EB070803
:103F10000026B146701E286029E02078242802D1AE
:103F20000EB1002425E020782A281AD1601D4045D2
:103F300016D8E0780D2813D120790A2810D1102244
:103F40000221601C01F002FC2860601DA8EB00004B
:103F50003E1A2868484503D04FF0FF3028600024FF
:103F600007E016B1207880EA0909641C761C4445F4
:103F7000D3D300BF2868002801DA04B100263046F8
:103F8000BDE8F087F0B5CDB005460E461446802159
:103F9000204601F079FD31462846FEF7B6FC04F1D3
:103FA000780004F1700104F1680204F16003CDE9C6
:103FB0000932CDE90B1020382039203A203BCDE9D9
:103FC0000532CDE907101C38011F183A183BCDE91E
:103FD0000132CDE903101C380DAB80A231460090B0
:103FE000284601F01AFC0E2805D089A0FEF799FC9E
:103FF00000204DB0F0BD0DA801F063FD074622463C
:1040000039460DA8FFF7B8FE20B186A0FEF789FC5F
:104010000020EEE70120ECE770B590B005460E46B3
:104020001446B821204601F02FFD31462846FEF700
:104030006CFC04F1B00104F1A80204F1A00304F146
:104040003400CDE90D320F910C90011F0A1F131F90
:104050001038CDE909320B910890011F0A1F131F78
:104060001038CDE9053207910490011F0838021F6E
:10407000231DCDE90032CDE9020123466FA231466E
:10408000284601F0CAFB112805D07BA0FEF749FCA9
:10409000002010B070BD0120FBE72DE9F04192B087
:1040A0000746884614465C21204601F0EDFC414657
:1040B0003846FEF72AFC04F158010A1F131F04F1C9
:1040C0004800CDE90F3211910E90011F0A1F131FF6
:1040D0001438CDE90B320D910A90011F0A1F131FEE
:1040E0001438CDE9073209910690011F0A1F0C38D8
:1040F0001C3BCDE90230CDE904210C38211D2346BB
:10410000624ACDE900104146384601F086FB06467A
:104110006068401E8500281DA168814202DAA068FF
:10412000401B00E004200546032000EB8505AE425D
:1041300001DB132E06DD56A0FEF7F3FB002012B0C4
:10414000BDE8F0810120FAE72DE9F041CEB0064646
:104150000F4614466021204601F096FC3946304651
:10416000FEF7D3FB04F15900411E04F15002CDE9E2
:104170000942CDE90B10201D011D083A04F140034E
:10418000CDE90532CDE9071034302831203A203B03
:10419000CDE9013286E00000253264253264253203
:1041A000640000002532642532642532642E2564C3
:1041B000000000005061727365206F662074696DA5
:1041C00065206572726F722028666F726D6174204F
:1041D0006572726F722921004C00002024475047FD
:1041E00047412C25732C25662C25432C25662C2530
:1041F000432C25642C25642C25662C25662C254310
:104200002C25662C25432C25662C25642A000000CD
:104210004750474741207061727365206572726F25
:104220007221000047504747412074696D65207036
:1042300061727365206572726F7221002447504766
:1042400053412C25432C25642C25642C25642C25D6
:10425000642C25642C25642C25642C25642C256471
:104260002C25642C25642C25642C25642C25662C97
:1042700025662C25662A000047504753412070616F
:10428000727365206572726F722100005099000888
:104290004750475356207061727365206572726F84
:1042A00072210000CDE903101C380EABF6A239468E
:1042B0000090304601F0B1FA05460D2D08D00E2DC4
:1042C00006D0FEA0FEF72DFB00204EB0BDE8F08129
:1042D0000EA801F0F6FB8046224641460EA8FFF7E5
:1042E0004BFD20B1FAA0FEF71CFB0020EDE7206893
:1042F000643020600120E8E770B588B005460E46BE
:1043000014464021204601F0BFFB31462846FEF707
:10431000FCFA04F1380004F1300104F1280204F140
:104320002003CDE90332CDE9051020382039203AA9
:104330002346CDE900210290EBA23146284601F048
:104340006CFA082805D0F0A0FEF7EBFA002008B0C0
:1043500070BD207A54280AD1207E4D2807D194F8C8
:1043600028004E2803D194F838004B2804D0EBA045
:10437000FEF7D7FA0020EAE70120E8E7F0B5CDB074
:1043800005460E4614468021204601F07DFB31464D
:104390002846FEF7BAFA04F1780004F1700104F13E
:1043A000680204F16003CDE90932CDE90B10203831
:1043B0002039203A203BCDE90532CDE907101C38E1
:1043C000011F183A183BCDE90132CDE903101C3822
:1043D0000DABDBA231460090284601F01EFA0E28F4
:1043E00005D0E4A0FEF79DFA00204DB0F0BD0DA869
:1043F00001F067FB0746224639460DA8FFF7BCFCD3
:1044000020B1E1A0FEF78DFA0020EEE70120ECE7F5
:104410002DE9F041CEB006460F46144660212046F5
:1044200001F032FB39463046FEF76FFA04F15900CD
:10443000411E04F15002CDE90942CDE90B10201DC7
:10444000011D083A04F14003CDE90532CDE907101A
:1044500034302831203A203BCDE90132CDE9031038
:104460001C380EABCEA239460090304601F0D5F98B
:1044700005460D2D08D00E2D06D0D6A0FEF751FA18
:1044800000204EB0BDE8F0810EA801F01AFB804676
:10449000224641460EA8FFF76FFC20B1D2A0FEF7DE
:1044A00040FA0020EDE72068643020600120E8E752
:1044B00070B588B005460E4614464021204601F0EE
:1044C000E3FA31462846FEF720FA04F13900411E8E
:1044D00004F1300204F12803CDE90432CDE90610DD
:1044E00019382039203A203BCDE90032CDE90210BD
:1044F0002346C3A23146284601F08FF9092805D08A
:10450000C8A0FEF70EFA002008B070BD207A54282B
:104510000AD1207E4D2807D194F828004E2803D1D7
:1045200094F838004B2804D0C3A0FEF7FAF9002015
:10453000EAE70120E8E72DE9F041C8B005460E465C
:1045400014461C21204601F09FFA31462846FEF70A
:10455000DCF945A946AA47AB201DCDE902320491FA
:104560000190001D05ABBDA231460090284601F028
:1045700054F907464798A0F26C702060062F06D0C9
:10458000BEA0FEF7CEF9002048B0BDE8F08105A836
:1045900001F097FA80462246414605A8FFF7ECFB5A
:1045A00020B1BBA0FEF7BDF90020EDE70120EBE74D
:1045B0002DE9F041C6B005460E461446402120467E
:1045C00001F062FA31462846FEF79FF904F13900FE
:1045D000411E06AB04F11802CDE90223CDE9041017
:1045E000293830392346B0A2CDE90010314628469B
:1045F00001F013F90746072F06D0B3A0FEF791F993
:10460000002046B0BDE8F08106A801F05AFA8046C5
:1046100004F11C02414606A8FFF7AEFB20B1AFA093
:10462000FEF77FF90020ECE70120EAE72DE9F041F1
:1046300092B00746884614465C21204601F024FAD1
:1046400041463846FEF761F904F158010A1F131F6D
:1046500004F14800CDE90F3211910E90011F0A1F9D
:10466000131F1438CDE90B320D910A90011F0A1F58
:10467000131F1438CDE9073209910690011F0A1F54
:104680000C381C3B36E10000244750524D432C258A
:10469000732C25432C25662C25432C25662C25437D
:1046A0002C25662C25662C2532642532642532643F
:1046B0002C25662C25432C25432A00004750524DBB
:1046C00043207061727365206572726F7221000001
:1046D0004750524D432074696D6520706172736557
:1046E000206572726F7221002447505654472C2562
:1046F000662C25432C25662C25432C25662C25432A
:104700002C25662C25432A004750565447207061BB
:10471000727365206572726F7221000047505654A3
:1047200047207061727365206572726F722028660F
:104730006F726D6174206572726F722921000000C2
:1047400024474E4747412C25732C25662C25432CA6
:1047500025662C25432C25642C25642C25662C25C8
:10476000662C25432C25662C25432C25662C256498
:104770002A000000474E4747412070617273652050
:104780006572726F72210000474E4747412074697D
:104790006D65207061727365206572726F722100A1
:1047A00024474E524D432C25732C25432C25662C33
:1047B00025432C25662C25432C25662C25662C2587
:1047C00032642532642532642C25662C25432C2541
:1047D000432A0000474E524D43207061727365209A
:1047E0006572726F72210000474E524D432074690A
:1047F0006D65207061727365206572726F72210041
:1048000024474E5654472C25662C25432C25662CD0
:1048100025432C25662C25432C25662C25432C2549
:10482000432A0000474E565447207061727365203A
:104830006572726F72210000474E565447207061B6
:10484000727365206572726F722028666F726D6177
:1048500074206572726F72292100000024474E5A3D
:1048600044412C25732C2532642C2532642C2534AC
:10487000642C2532642C2532642A0000474E5A44A9
:1048800041207061727365206572726F7221000041
:10489000474E5A44412074696D652070617273659A
:1048A000206572726F72210024474E474C4C2C25B4
:1048B000662C25432C25662C25432C25732C25435B
:1048C0002C25432A00000000474E474C4C207061C5
:1048D000727365206572726F72210000474E474CFB
:1048E0004C2074696D652070617273652065727209
:1048F0006F722100CDE90230CDE904210C38211D71
:104900002346FD4ACDE900104146384600F085FFB8
:1049100006466068401E8500281DA168814202DAB3
:10492000A068401B00E004200546032000EB85053D
:10493000AE4201DB132E06DDF0A0FDF7F2FF0020F2
:1049400012B0BDE8F0810120FAE7FEB505460E463B
:104950001446002020606060A06031462846FDF7C4
:10496000D4FFEB4A04F10800211D2346CDE90102E2
:104970000091E8A23146284600F04FFF0746042F79
:1049800004D0EAA0FDF7CDFF0020FEBD0120FCE72A
:10499000C3680B6103694B6143698B618369CB61B8
:1049A000C26B0A62D0E91223C1E90C23D0E91423B7
:1049B000C1E9142390F828204E2A02D1D0E9082317
:1049C00003E0D0E9082383F00043C1E9102390F805
:1049D0003820452A02D1D0E90C2303E0D0E90C238A
:1049E00083F00043C1E912230A6842F001020A6021
:1049F0007047F0B50024383050F8345C4D62D0E98F
:104A00001A56C1E90A56D0E91C56C1E90C56D0E93C
:104A10001E653838C1E90E65002221E000231AE046
:104A200000F1080555F82250A5B100F1080555F828
:104A3000226003EB830701F1840555F82750AE424D
:104A400008D1012603EB830701F1840505EB8705F7
:104A50006E60641C5B1C80256D589D42E0DC521C1E
:104A6000252ADBDBCC670D6845F002050D60F0BD43
:104A700070B590B005460E461446B821204601F0A8
:104A800003F831462846FDF740FF04F1B00104F178
:104A9000A80204F1A00304F13400CDE90D320F9116
:104AA0000C90011F0A1F131F1038CDE909320B911A
:104AB0000890011F0A1F131F1038CDE90532079116
:104AC0000490011F0838021F231DCDE90032CDE9F3
:104AD000020123469AA23146284600F09EFE112884
:104AE00005D0A6A0FDF71DFF002010B070BD01206D
:104AF000FBE7F0B5D0E90065B54204DC2526456842
:104B0000B6EB850F00DAF0BD4568012D01DA01250D
:104B10004560802586686E5045686D1EAC00251D79
:104B20008668AE4202DA85682D1B00E004252C461B
:104B300000223AE045686D1E02EB850302EB820617
:104B400000F10C0555F8266003EB830701F184059D
:104B500045F8276002EB820600F10C0505EB86059F
:104B600003EB8307AE6801F1840505EB8705AE60B2
:104B700002EB820600F10C0505EB860503EB8307CB
:104B8000EE6801F1840505EB8705EE6002EB820615
:104B900000F10C0505EB860503EB83072E6901F197
:104BA000840505EB87052E61521CA242C2DB0D680D
:104BB00045F004050D6000BFA5E72DE9F04105466D
:104BC0000C46287F412809D1206A08B902202062BA
:104BD000606A012809D10220606206E0287F562819
:104BE00003D100202062012060621C222946201D82
:104BF00000F031FF95F828004E2802D1D5E90801D0
:104C000003E0D5E9080181F00041C4E9100195F8FD
:104C10003800452802D1D5E90C0103E0D5E90C01A3
:104C200081F00041C4E91201594A5A4BD5E910619B
:104C3000304601F043F8C4E91801D5E91201C4E98E
:104C40001A01206840F008002060BDE8F081D0E93A
:104C50000023C1E91A23D0E90423C1E91C23D0E9C8
:104C60000C23C1E918230A6842F010020A60704759
:104C7000C3680B6103694B6143698B618369CB61D5
:104C8000C26B0A62D0E91223C1E90C23D0E91423D4
:104C9000C1E9142390F828204E2A02D1D0E9082334
:104CA00003E0D0E9082383F00043C1E9102390F822
:104CB0003820452A02D1D0E90C2303E0D0E90C23A7
:104CC00083F00043C1E91223026CCA670A6842F408
:104CD00080520A6070472DE9F04105460C46287F56
:104CE000412859D1206A08B902202062606A01284F
:104CF00059D10220606256E00C99000842444753A3
:104D000056207061727365206572726F72210000A7
:104D1000940A00202447505458542C2532642C25E2
:104D200032642C2532642C25732A000047505458D5
:104D300054207061727365206572726F7221000079
:104D40002442444753412C25432C25642C25642CB4
:104D500025642C25642C25642C25642C25642C25A5
:104D6000642C25642C25642C25642C25642C256456
:104D70002C25662C25662C25662A000042444753C4
:104D800041207061727365206572726F722100003C
:104D90006F1283C0CAA1FD3F287F562803D100208F
:104DA0002062012060621C222946201D00F053FE73
:104DB00095F828004E2802D1D5E9080103E0D5E98D
:104DC000080181F00041C4E9100195F83800452838
:104DD00002D1D5E90C0103E0D5E90C0181F00041D5
:104DE000C4E91201D5E91001C4E91601A64AA74B8E
:104DF000D5E91061304600F061FFC4E91801D5E93A
:104E00001201C4E91A0195F8590084F87800206865
:104E100040F400602060BDE8F081D0E90023C1E9E2
:104E20001A23D0E90423C1E91C23D0E90823C1E9EE
:104E30001623D0E90C23C1E9182390F8392081F812
:104E400078200A6842F480620A60704770B50546AF
:104E50000C461C222946201D00F0FDFD206840F470
:104E60008070206070BD90F83820412A09D10A6A0C
:104E70000AB902220A624A6A012A0AD102224A6255
:104E800007E090F83820562A03D100220A62012256
:104E90004A62027A4E2A02D1D0E9002303E0D0E927
:104EA000002383F00043C1E91023027E452A02D18A
:104EB000D0E9042303E0D0E9042383F00043C1E9EF
:104EC0001223836A0B61C36A4B61036B8B61436B73
:104ED000CB6190F8392081F878200A6842F400729A
:104EE0000A607047F0B5D0E90065B54204DC2526BC
:104EF0004568B6EB850F00DAF0BD4568012D01DA93
:104F0000012545604FF45B7586686E5045686D1EDF
:104F1000AC00251D8668AE4202DA85682D1B00E0D4
:104F200004252C4600223AE045686D1E02EB8503FD
:104F300002EB820600F10C0555F8266003EB8307AF
:104F400001F55C7545F8276002EB820600F10C055F
:104F500005EB860503EB8307AE6801F55C7505EB91
:104F60008705AE6002EB820600F10C0505EB8605B5
:104F700003EB8307EE6801F55C7505EB8705EE60D2
:104F800002EB820600F10C0505EB860503EB8307B7
:104F90002E6901F55C7505EB87052E61521CA24256
:104FA000C2DB0D6845F040050D6000BFA4E7F0B519
:104FB0000024383010F8385C4D62D0E91A56C1E947
:104FC0000A56D0E91C56C1E90C56D0E91E6538389E
:104FD000C1E90E65002222E000231AE000F1080575
:104FE00055F82250A5B100F1080555F8226003EBF1
:104FF000830701F55C7555F82750AE4208D10126AC
:1050000003EB830701F55C7505EB87056E60641C97
:105010005B1C4FF45B756D589D42DFDC521C252AEA
:10502000DADBC1F868430D6845F080050D60F0BD1E
:1050300070B505460C46A868C4F854061448C4F870
:105040005806D4F8540620B9114912A0FDF78CFC7B
:1050500019E0D4F85406012804D10D4911A0FDF738
:1050600083FC10E0D4F85406022804D1084912A0A9
:10507000FDF77AFC07E0D4F85406072803D1044969
:1050800012A0FDF771FC70BD6F1283C0CAA1FD3F75
:10509000940A00204750545854206572726F723A37
:1050A000202573004750545854207761726E696E02
:1050B000673A2025730000004750545854206E6F03
:1050C000746963653A202573000000004750545806
:1050D00054207573657220696E666F3A20257300DF
:1050E00070B504460026FDF7EBFBC568FF2D01DC1B
:1050F0004FF480751421204600F0C6FC284603F0CA
:10510000E9FBA06018B9FCA0FDF70BFC01E0E5602D
:105110000126304670BD70B5054600262C6874B176
:10512000606810B1606803F0ADFB2668A068286075
:10513000286808B900206860204603F0A3FB3046C9
:1051400070BD10B5044602E02046FFF7E4FF20687A
:105150000028F9D1012010BD10B50446A06803F065
:1051600091FB2046FFF7EDFF1421204600F08CFC58
:1051700010BD2DE9F04104460E46002725685DB1BB
:10518000686830602F68A8682060206808B900202F
:105190006060284603F076FB3846BDE8F0810146A2
:1051A00000200861012070472DE9F84F05468A4626
:1051B00090460026002428694044E968884202DBC2
:1051C0002846FFF7ECFF2A69A9688818424651462D
:1051D00000F041FC28694044286100BF2A69911B06
:1051E000AA6890196A46FEF78CFE074657B946B181
:1051F0002B699B1B1A462B61AB689919184600F066
:105200002AFCCFE10098002874DB2A69921B511E0A
:10521000AA683244501CFEF7F1FD81460C2003F0D1
:1052200059FB041E00D1C1E100206060B9F1400FBC
:105230007CD014DCB9F1080F7DD009DCB9F1010F85
:1052400022D0B9F1020F3AD0B9F1040F70D152E077
:10525000B9F1100F6DD0B9F1200FF7D173E1B9F5A5
:10526000806F67D009DCB9F1800F7CD0B9F5807F01
:105270007AD0B9F5007FE9D107E1B9F5006F74D0B4
:10528000B9F5805FE2D190E0802003F023FB6060FD
:1052900000B98BE1012020606268A968881939464D
:1052A000FEF770FE50B9606820B1606803F0EAFA5A
:1052B00000206060204603F0E5FA002463E1B82096
:1052C00003F008FB606000B970E1022020606268B2
:1052D000A96888193946FEF79FFE50B9606820B169
:1052E000606803F0CFFA00206060204603F0CAFA3D
:1052F000002448E153E15C2003F0ECFA606000B95F
:1053000054E1042020606268A96888193946FEF7D4
:10531000C4FE50B9606820B1606803F0B3FA0020A1
:105320006060204603F0AEFA00242CE1C9E002E000
:1053300024E11FE071E0602003F0CCFA606000B966
:1053400034E1082020606268A96888193946FEF7B0
:10535000FBFE70B9606820B1606803F093FA00202A
:105360006060204602E0D3E073E03AE003F08AFA9E
:10537000002408E1402003F0ADFA606000B915E1B7
:10538000102020606268A96888193946FEF7B4FFCA
:1053900050B9606820B1606803F074FA0020606062
:1053A000204603F06FFA0024EDE0802003F092FA2B
:1053B000606000B9FAE04FF4805020606268A9682C
:1053C00088193946FEF7DAFF50B9606820B1606885
:1053D00003F058FA00206060204603F053FA0024DE
:1053E000D1E0602003F076FA606000B9DEE04FF4AF
:1053F000006020606268A96888193946FFF708F8DC
:1054000050B9606820B1606803F03CFA0020606029
:10541000204603F037FA0024B5E0402003F05AFAA2
:10542000606000B9C2E04FF4806020606268A968E3
:1054300088193946FFF73CF850B9606820B16068B8
:1054400003F020FA00206060204603F01BFA0024DD
:1054500099E01C2003F03EFA606000B9A6E04FF42A
:10546000807020606268A96888193946FFF763F880
:1054700050B9606820B1606803F004FA00206060F1
:10548000204603F0FFF900247DE0402003F022FADB
:10549000606000B98AE04FF4007020606268A9681B
:1054A00088193946FFF784F850B9606820B1606800
:1054B00003F0E8F900206060204603F0E3F90024DF
:1054C00061E05C2003F006FA606000B96EE0402005
:1054D00020606268A96888193946FFF7A7F850B9B3
:1054E000606820B1606803F0CDF90020606020465C
:1054F00003F0C8F9002446E0496E73756666696377
:1055000069656E74206D656D6F7279210000000011
:10551000B82003F0DFF9606000B947E08020206028
:105520006268A96888193946FFF7A2FA50B960681D
:1055300020B1606803F0A6F900206060204603F007
:10554000A1F900241FE00C2003F0C4F9606000B949
:105550002CE0202020606268A96888193946FFF78E
:10556000F4F950B9606820B1606803F08BF900204D
:105570006060204603F086F9002404E0204603F032
:1055800081F9002400BF00BF4CB1686808B16868A9
:1055900084606C60286800B92C600020A0603E44E4
:1055A00000241BE600BF3046BDE8F88F14B120464A
:1055B00003F068F9AFF2C000FDF7B3F94FF0FF3028
:1055C000F2E72DE9F041054688461446002700BF62
:1055D000E868A04201DAEE6800E02646324641461D
:1055E0002846FFF7E1FD0744A41B002CF0D1384604
:1055F000BDE8F0812DE9F8430746884691461D46EF
:105600000026002000904A4641463846FFF7D9FF61
:105610006BE0761C402C55D00EDC082C2FD006DC1D
:10562000012C1DD0022C20D0042C5AD122E0102CA9
:105630002AD0202C55D14FE0B4F5806F33D008DC50
:10564000802C44D0B4F5807F32D0B4F5007F48D1AF
:1056500033E0B4F5006F21D0B4F5805F41D118E09C
:1056600029460098FFF794F93BE029460098FFF798
:10567000C0F936E029460098FFF73BFA31E02946A9
:105680000098FFF79AFA2CE029460098FFF7DFFA16
:1056900027E029460098FFF7EBFA22E02946009818
:1056A000FFF719FB1DE029460098FFF7B6FB18E04D
:1056B00029460098FFF7CAFB13E029460098FFF738
:1056C000D2FB0EE029460098FFF70CFC09E02946C2
:1056D0000098FFF76CFC04E029460098FFF7A8FC4F
:1056E00000BF00BF009803F0CDF869463846FFF7C9
:1056F00040FD041E8DD13046BDE8F88301460020F0
:105700000A6802B11068704710B502460B460020C7
:10571000116811B14C681C60086810BD72210160ED
:1057200000214160012181600021C160016141616E
:105730008161704710B502460B460020002102E04F
:10574000545C6040491C9942FADB10BDF0B5C1B011
:1057500005460C4616460027FF2C0DDC224629463E
:10576000684600F078F900200DF80400324640A9A0
:10577000684600F0C4F90746384641B0F0BDF0B5C0
:10578000C1B007460C4600210D460E46FF2C0DDC2D
:1057900022463946684600F05EF900200DF8040004
:1057A00040A9684603F078FE05460E462846314675
:1057B00041B0F0BD0FB42DE9F84306460D46002771
:1057C000002D04DC0020BDE8F8035DF814FB0BA8F5
:1057D000009029463046009B0A9A01F03FF80446A3
:1057E000002C0BDD611E701CFFF7A4FF8046291BF7
:1057F000301943468FA201F003F807463C44002CC1
:1058000001DBAC4205DD20222946304600F035F9A7
:105810002C46002000902046D5E70FB42DE9FF5F0D
:1058200004468B4604EB0B080120029000264FF043
:105830000009002001908246009011A80390EAE040
:105840000298012806D0022813D0032817D0042874
:105850000ED12BE010980078252802D1022002906A
:1058600006E014F8011B10980078814200D0D9E0BE
:10587000CDE00026DDF840900320029000BF00F04C
:10588000DDF8006810990978405C202800D1BEE05E
:10589000042002901098484507D91098A0EB090100
:1058A0000A224846FFF752FF064600BF27466EB958
:1058B00010980078632803D010980078432805D109
:1058C000207810994978884200D001262EB1A0197D
:1058D000404501D834440DE0A4E01098407840B130
:1058E000A8EB040210984178204600F0F1F8041E5D
:1058F00000D14446444500D994E00120029000982C
:10590000401C00900025E61B10980078632812D0F8
:1059100008DC432810D0452828D0472824D0532815
:1059200030D112E0652820D066281BD067281AD015
:10593000732827D108E000BF039820C8039016B150
:105940000DB1387828701DE000BF039820C803907F
:105950003EB135B132463946284600F07CF8002089
:10596000A8550FE000BF00BF00BF00BF039820C8CC
:10597000039036B12DB131463846FFF700FFC5E937
:10598000000100BF00BF05B141E0039802C80D1E31
:10599000039000D13BE006B939E0109800786F28F9
:1059A00029D006DC58281DD0642807D069282BD1BF
:1059B00005E075280CD0782826D112E000BF0A2215
:1059C00031463846FFF7C2FE0190019828601CE07E
:1059D0000A2231463846FFF7B9FE8246C5F800A0D4
:1059E00013E000BF102231463846FFF7AFFE824673
:1059F000C5F800A009E0082231463846FFF7A6FEA8
:105A00008246C5F800A000E00CE000BF00BF00BF68
:105A10001098401C10901098007810B14445FFF485
:105A20000FAF00BF00200390009804B0BDE8F01F46
:105A30005DF814FB2A253032780D0A0000487047C3
:105A40005C97000810B50446FFF7F8FF0068005D9A
:105A500000F0010010BD40EA01039B0703D009E0FC
:105A600008C9121F08C0042AFAD203E011F8013B4A
:105A700000F8013B521EF9D27047D2B201E000F8A3
:105A8000012B491EFBD270470022F6E710B51346E2
:105A90000A4604461946FFF7F0FF204610BD30B510
:105AA00005462A460B4612F8010B13F8014B08B1C4
:105AB000A042F8D01CB1002802D06D1CF1E72846A6
:105AC00030BD421C10F8011B0029FBD1801A704721
:105AD000CBB203E00178994203D0401C521EF9D2A8
